:020000040000FA
:020000000A28CC
:10000800FE00030EF0000A08F100D2280B28F801C0
:10001800F9018301CB2883120313A101F31F1528CB
:1000280016281D28F209F309F20A0319F30AA10197
:10003800A10AF51F202821282A28F409F509F40A1D
:100048000319F50A0130F6007608A106A201A301FA
:10005800720873040319312832286928A001A00AFC
:10006800402801300310F20DF30DFF3E031D362822
:100078000130F6007608A007F31F432844283528E6
:1000880001300310A20DA30DFF3E031D4528730880
:100098007502031D512872087402031C5428552840
:1000A8005C287208F4027308031CF503F502221495
:1000B80001300310F30CF20CFF3E031D5D280130E4
:1000C800A002031D682869284428210803196D28FF
:1000D8006E287328A209A309A20A0319A30A2308F0
:1000E800F3002208F20008000430F2000030F300A8
:1000F800831203132508F5002408F4000F20730861
:1001080083120313A7007208A60014308316031382
:100118008100DF308312031381008B12A801A9012B
:10012800A2280B1D9828992895288B120130831234
:100138000313A8070318A90A0030A9072908803A59
:10014800F7002708803A7702031DAC282608280202
:10015800031CAF28B02895280800831203138601D2
:10016800F430A4000130A5007820FF308312031377
:100178008600F430A4000130A5007820080083161A
:1001880003138601FF3083120313860008008316C9
:1001980003138F01C320B120CF280A2871088A00D1
:0A01A800700E8300FE0E7E0E0900AB
:02400E00B8FFF9
:00000001FF
